:020000040800F2
:10000000D81B0020417400080F710008117100080E
:100010001371000815710008177100080000000036
:10002000000000000000000000000000197100083E
:100030001B710008000000001D7100081F710008FE
:10004000777400087B7400087F74000883740008CC
:10005000877400088B7400088F740008937400087C
:10006000977400089B7400089F740008A37400082C
:10007000A7740008AB740008AF740008B3740008DC
:10008000B7740008BB740008BF740008C37400088C
:1000900021710008C7740008CB740008CF740008F1
:1000A000D37400082B710008D7740008DB740008B3
:1000B000DF740008E3740008E7740008EB740008BC
:1000C000EF740008F3740008F7740008FB7400086C
:1000D000FF74000803750008077500080B75000819
:1000E0000F750008137500081775000881B000F53A
:1000F000E0700268914203D343681A44914202D3EC
:1001000080680028F5D101B07047DFF874170868DF
:1001100090B94FF4805048604FF480324FF0FF3078
:100120008A60C86008610420DFF85827DFF8583774
:100130004861C2F8BC010B600120704701F108035F
:1001400013F0070F0EBF0023C3F1080303F00703EA
:100150001944D21A8161C26042F001034B60091D4B
:1001600028238B50DFF818170A69C26170472DE900
:10017000FC47044601F1080010F0070F0FBF8A4644
:10018000C0F1080000F0070001EB000A02F10801CD
:1001900011F0070F06D002F10800C0F1080000F0CE
:1001A000070002441646A6EB0A000AEB0307A0EB81
:1001B000030843F00303CAF80430B74228BF01F034
:1001C00009FA3079C10758BF01F004FAB8F1100FED
:1001D00038BF01F0FFF9A069864207D1E0684044CA
:1001E000E060A76140F00100786050E160698642FC
:1001F0000AD1A0688044C4F80880676148F0010013
:10020000786047F8088042E1706800F00301012936
:1002100040F0AB80C008C0000190C0081F2839D84A
:10022000B568D6F80C9000904E4508BF01F0D2F9A1
:10023000AE4208BF01F0CEF970680099C008C00056
:10024000B0EBC10F18BF01F0C5F9009904F1280007
:1002500000EBC100854206D022699542C0F0808043
:10026000E968B1427CD1A94506D1009821680122F4
:1002700082409143216075E0814506D02069814527
:100280006ED3D9F80800B0426AD1C5F80C90C9F80D
:10029000085067E0F568D6F81890B5420CD0B06801
:1002A0002169884222D3C168B14204BFA968B14222
:1002B0001CD1C560A8601BE006F11402156835B9B1
:1002C00006F1100215689DB101E01A46156805F1A6
:1002D00014031968002902BF05F1100318680028EB
:1002E000F3D121698A4228BF106001D201F072F96E
:1002F000B9F1000F36D0F16904F5987000EB810078
:100300000268964208D10560A5B9F06961680122CA
:1003100082409143616025E02069814508D3D9F886
:100320001000B04214BFC9F81450C9F8105001E0D1
:1003300001F050F9B5B121698D4211D3C5F818907B
:10034000306928B1884226BF2861856101F042F9F1
:10035000706938B12169884202D36861856101E022
:1003600001F038F901983618804470684008400060
:10037000706048F0010179604FEAD80547F80880BD
:100380001F2D23D804F1280000EBC5094E46B8F113
:10039000100F38BF01F01EF9206820FA05F1C907D7
:1003A00005D4012101FA05F50543256007E0D9F8D8
:1003B0000800216988422CBF064601F00BF9C9F8F4
:1003C0000870F760BE60C7F80C9060E05FEA182024
:1003D00008BF002223D0B0F5803F28BF1F221ED2C5
:1003E000A0F58071090C01F008018840A0F5805249
:1003F000120C02F004029040A0F580431B0CC1F1E6
:100400000E0103F00203891AC91A984001EBD0319A
:10041000C81D28FA00F202F0010202EB410204F5C5
:10042000987101EB8200FA6100217961396161689C
:1004300021FA02F3DB0707D4012303FA02F20A438D
:1004400062600760B8611DE001681F2A1DBF520885
:10045000C2F1190208FA02F2424600E00146486879
:10046000C008C000404516D001F11003D50F03EBC2
:100470008503520018680028F0D12069834204D314
:100480001F60B961FF60BF6001E001F0A3F80AF1ED
:100490000800BDE8F68722698868914228BF90422B
:1004A000F3D3C7608F60B860F9600020B861EEE7F1
:1004B0002DE9F04F054683B0AE698A46374693462C
:1004C00098463946FFF712FE01684068CDF800B043
:1004D00001EB0009A9F1270111F007000EBF00216F
:1004E000C1F1080101F00701009ACDF804A009EB61
:1004F00001000199A0F12F0407F110008442284661
:1005000038BF3C46283AFFF719FE04F1080004F111
:10051000180A4FF0000B10F0070F18BF01F05AF83F
:100520001B20606004F1080105F5E07090E80C50B4
:1005300081E80C500199016000994160C0F80C807D
:1005400004F10801816001E00AF1040A0720CAF8F9
:1005500004000BF1010B0AF108004845F4D3BBF18C
:10056000010FD8BF01F036F8BC4200F09580E41BC3
:10057000381D391D005940084000085144F0010160
:1005800079604FEAD4083C51B8F11F0F21D805EB30
:10059000C80000F12806B146102C38BF01F01AF847
:1005A000286820FA08F1C90705D4012101FA08F1E9
:1005B0000843286006E0B068296988422CBF81465C
:1005C00001F008F8B760C9F80C70C7F80890FE6031
:1005D0006FE0200A08BF002123D0B0F5803F28BF7C
:1005E0001F211ED2A0F58072120C02F0080290406A
:1005F000A0F58051090C01F004018840A0F580436A
:100600001B0CC2F10E0203F00203521AD21A9840D8
:1006100002EBD032D01D24FA00F101F0010101EB10
:10062000420105EB8102002302F59870F9617B61BC
:100630003B616A6822FA01F3DB0707D4012303FA5E
:1006400001F1114369600760B8611DE002681F296C
:100650001DBF4908C1F1190104FA01F1214600E06A
:1006600002465068C008C000A04216D002F1100334
:10067000C80F03EB8003490018680028F0D12869EF
:10068000834204D31F60BA61FF60BE6011E003B013
:10069000BDE8F04F00F09EBF0BE0296990688A42E8
:1006A00028BF8842F3D3C7609660B860FA60002024
:1006B000B86103B0BDE8F08F2DE9F041704F0546F9
:1006C0003868884608B9FFF720FDB96801EB0800D3
:1006D0002F30491E20EA010188457BD205F5D876E6
:1006E000B06828B1326889188A4273D2884271D3BF
:1006F00000F0B0FF01001CBF0C6811F1010F69D0C0
:100700003068201830607268824238BF02467260DA
:10071000A86960BB286908B1814200D229613161B2
:1007200074610020F06105F12802386868624FF0BA
:10073000FF3028620020D260926002F1080353610A
:100740001361801C10322028F5D34E48854208BF23
:10075000A4F1280228D055F8040CC00805EBC0020B
:10076000A2F108000A19121A283A01461CE005F500
:10077000E070024600E092687AB3136857683B4421
:100780009942F8D1137B1F0727D4AB691768BB4286
:1007900023D3D2F804C06744BB421ED2A444C2F89B
:1007A00004C0E868A96922182846FFF7C7FC1FE0C3
:1007B0008068C0B103689342FAD1027B130712D458
:1007C000026801604368E418446043462846BDE877
:1007D000F041CCE40020BDE8F0812A69914238BFA5
:1007E00029610A19E5E7002322462846FFF760FE43
:1007F000E8688045EED2A0EB0800A969E86001EB4B
:100800000802AA6140F00100506048F0030048600F
:1008100001F10800BDE8F08138B4194B1A6882B9BB
:100820004FF480525A604FF480344FF0FF329C6096
:10083000DA601A610422134C134D5A61C4F8BC21CA
:100840001D6011F1400F17D28269AAB1C368283127
:1008500099420BD200F5E0710C68A24203D34D68B7
:100860002C44A24202D389680029F5D1C16999427A
:100870003CBF4FF0FF31C16132BC00207047000027
:10088000AC1700201C1400206859883C2DE9F84F53
:1008900000248846090AC8F1000908BF002323D0B4
:1008A000B1F5803F28BF1F231ED2A1F58072120C24
:1008B00002F008029140A1F580531B0C03F00403E1
:1008C0009940A1F58046360CC2F10E0206F00206F0
:1008D000D21A921BB14002EBD132D11D28FA01F39A
:1008E00003F0010303EB4203064606F5987B5BF831
:1008F000230040B31F2B0FBFC4464FEA530CCCF16B
:10090000190C08FA0CFCA646494601E04FEA4C0CCB
:100910004268D208D200A2EB08028A4203D2110038
:10092000044600F06B81426910304FEADC7950F8E0
:100930002900002A1CBF824296460028E6D189463B
:100940007046B0BBBCBB012000FA03F35B00584209
:1009500003437068034000F05081584203405B1E1F
:10096000180B00F01000C340590901F00801CB40FA
:100970009A0802F00402D3405D0805F00205081849
:10098000EB401018C3F3400728443844FB401B18C1
:100990005BF823000DE008464168C908C900A1EBD7
:1009A000080149453CBF8946044601690029F2D146
:1009B00040690028F0D1002C00F01F81B068A0EB46
:1009C0000800814580F0198130698442C0F01381AC
:1009D00008EB0900009008EB09016068C008C0003E
:1009E000884218BF00F0F6FD04EB0807BC4280F017
:1009F0000281E568D4F818A0A5420CD0A06831693E
:100A0000884222D3C168A14204BFA968A1421CD177
:100A1000C560A8601BE004F11402156835B904F143
:100A2000100215689DB101E01A46156805F114031E
:100A30001968002902BF05F1100318680028F3D1D6
:100A400031698A4228BF106001D200F0C3FDBAF1BB
:100A5000000F35D0E1690BEB81000268944208D1A8
:100A60000560A5B9E0697168012282409143716017
:100A700026E03069824508D3DAF81000A04214BF9E
:100A8000CAF81450CAF8105001E000F0A3FDBDB13F
:100A90003069854212D3C5F818A0206930B1316998
:100AA000884226BF2861856100F094FD606938B1F5
:100AB0003169884202D36861856101E000F08AFDF6
:100AC000B9F1100F0AD2009840F003006060211DB8
:100AD00000980A5842F001020A5088E048F00300EA
:100AE000606049F0010078604FEAD90047F809904A
:100AF0001F281DD806EBC00101F12805316821FA35
:100B000000F2D207A84605D4012202FA00F00843F9
:100B1000306006E0A868316988422CBF804600F04A
:100B200059FDAF60C8F80C70C7F80880FD605EE042
:100B30005FEA192008BF002223D0B0F5803F28BF0C
:100B40001F221ED2A0F58071090C01F00801884017
:100B5000A0F58052120C02F004029040A0F58043F0
:100B60001B0CC1F10E0103F00203891AC91A984047
:100B700001EBD031C81D29FA00F202F0010202EBAC
:100B80004102FA610021796139610BEB82007168E1
:100B900021FA02F3DB0707D4012303FA02F20A4326
:100BA00072600760B8611DE001681F2A1DBF52080E
:100BB000C2F1190209FA02F24A4600E00146486809
:100BC000C008C00048451BD001F11003D00F03EB53
:100BD0008003520018680028F0D13069834204D3A2
:100BE0001F60B961FF60BF6001E000F0F3FC04F139
:100BF0000800BDE8F28F00F0EDFC10E18946A0E6A8
:100C000032698868914228BF9042EED3C7608F60F6
:100C1000B860F9600020B861E9E72DE9F84F0646B1
:100C20008846716848420140491E080B00F01000D8
:100C3000C1404A0902F00802D1408B0803F00403C6
:100C4000D9404D0805F002051018E9401818C1F305
:100C50004004281806F5987A2044E14009185AF80B
:100C600021104868C008C0000D46A0EB080909E043
:100C700001464868C008C000A0EB080048453CBFDA
:100C800081460D4608690028F2D149690029F0D152
:100C900030698542C0F0C1806868C00808EB090B64
:100CA000C000584518BF00F095FC05EB08008542D0
:100CB000009080F0B280EF68AC69AF420CD0A868B9
:100CC0003169884222D3C168A94204BFB968A942E8
:100CD0001CD1C760B8601BE005F11402176837B972
:100CE00005F1100217689FB101E01A46176807F175
:100CF00014031968002902BF07F1100318680028BF
:100D0000F3D131698A4228BF106001D200F062FC41
:100D1000002C31D0E9690AEB81000268954208D1C4
:100D200007608FB9E8697168012282409143716060
:100D300022E03069844205D32069A84214BF67616C
:100D4000276101E000F046FCB7B13069874211D35A
:100D5000BC61286930B13169884226BF386187613A
:100D600000F038FC686938B13169884202D3786193
:100D7000876101E000F02EFCB9F1100F0BD24BF0AF
:100D800003006860291D281D50F80B0040F0010089
:100D900041F80B003DE048F00301696049F00100B3
:100DA000291D41F80800009840F80990D6F80880FD
:100DB0004FEAD80BBBF1200F28BF00F00BFCB8F1B5
:100DC000000F22D006EBCB00776900F12804A24681
:100DD000B8F1100F38BF00F0FDFB306820FA0BF1BE
:100DE000C90705D4012101FA0BF10843306006E080
:100DF000A068316988422CBF824600F0EBFBA760F7
:100E0000CAF80C70C7F808A0FC60C6F808900098F3
:100E1000706105F10800BDE8F28F00F0DBFB0020F7
:100E2000BDE8F28F2DE9F04F83B00546AFF30080A7
:100E3000F52DDFF89C6780F004810B2D31BF102564
:100E40000B35ED08ED003068EC08E04010F0030FC2
:100E500046D0C04300F00100041906F1280000EB61
:100E6000C408E700D8F808506868C008C000B84255
:100E700018BF00F0AFFBD5F80890454508BF00F05B
:100E8000A9FB4D4508BF00F0A5FB6868C008C0007D
:100E9000B84218BF00F09EFBC84507D13168012059
:100EA00000FA04F421EA040434600DE0306981455D
:100EB00008D3D9F80C00A84204D1C8F80890C9F8A2
:100EC0000C8001E000F086FB47F003006860291DFC
:100ED000281D05F10804C05940F00100C851F8E090
:100EE000B168A94280F0BE80002800F0A1804FF0D8
:100EF000010808FA04F1490000FA04F448420143E9
:100F00000C4060420440641E200B00F01000C440FE
:100F1000610901F00801CC40A20802F00402D440AB
:100F2000630803F002030818DC401018C4F34007FC
:100F300018183818FC40241806F1280000EBC40AE1
:100F4000E700DAF80890D9F80400C008C000B842F9
:100F500018BF00F03FFBD9F808B0D14508BF00F03A
:100F600039FBD94508BF00F035FBD9F80400C008AB
:100F7000C000B84218BF00F02DFBDA4506D1316839
:100F800008FA04F421EA040434600DE03069834572
:100F900008D3DBF80C00484504D1CAF808B0CBF8F8
:100FA0000CA001E000F016FB45F00300C9F80400B6
:100FB0007F1B09F1040147F00100485109EB0500CE
:100FC0000190C751B4684FEAD40ABAF1200F28BF84
:100FD00000F000FB34B3CDF800A006F128007569DD
:100FE00000EBCA0AD346102C38BF00F0F3FA316880
:100FF000009821FA00F2D30704D408FA00F008435D
:10100000306007E0DAF80800316988422CBF834677
:1010100000F0E0FACAF80850CBF80C50C5F808B058
:10102000C5F80CA0B76009F108040198706150E0A0
:101030007068C0B329463046FFF7EFFD040011D0B9
:1010400047E015F1400F28BF4FF0FF350AD20B35AE
:10105000ED087068ED0028B129463046FFF716FC10
:10106000040036D1B068A8421DD3411B7269102913
:101070000AD350197061B16041F0010343604150DF
:1010800045F0030555600BE00021B1607161131D4F
:1010900040F003015160111D095841F00101195040
:1010A00002F1080415E0F06885420DD2401BB169D9
:1010B000F0604A19B26140F00100506045F003054C
:1010C0004D6001F1080404E029463046FFF7F4FAC8
:1010D0000446AFF300802046FFF7EBBA002800D1AA
:1010E00070472DE9F04782B0A0F10805AFF300800A
:1010F000DFF8DC6432699542C0F05682686800F01F
:101100000301012900F05082C1084FEAC109C1075B
:1011100005EB090839D42C6810F0030F00F0468263
:10112000604205449542A144C0F03E827069854208
:1011300000F0C780E408202C5ED2D5F80CA0AF6880
:10114000554508BF00F046FABD4208BF00F042FA1C
:101150006868C008C000B0EBC40F18BF00F03AFACE
:1011600006F1280000EBC400874205D031698F42A8
:101170003FD3F968A9423CD1BA452CD1306801214E
:1011800001FA04F420EA04043460454580F00C823E
:10119000D8F80410C80740F10782880700F165817C
:1011A000B069804540F0A080F068B5618144C6F820
:1011B0000C9049F0010068607069854202D10020FE
:1011C0007061B060F069484580F0F08100213046E0
:1011D000FFF722FBEAE1824506D03069824508D359
:1011E000DAF80800A84204D1C7F80CA0CAF80870C1
:1011F000CBE700F0EFF9C8E7EC68AF69AC420BD081
:10120000A868904223D3C168A94204BFA168A9423B
:101210001DD1C460A0601CE005F114031C6834B942
:1012200005F110031C68A4B101E063461C6804F1D9
:10123000140CDCF80010002902BF04F1100CDCF8DB
:1012400000000028F1D1934228BF196001D200F0BC
:10125000C1F9002F99D0E96906F5987000EB81007B
:101260000268954209D10460200011D1E8697168D3
:10127000012282409143716087E73069874205D33C
:101280003869A84214BF7C613C6101E000F0A2F91A
:10129000002C3FF47AAF31698C42AAD3A761286948
:1012A00028B1884226BF2061846100F093F9686903
:1012B00000283FF46AAF316988429AD36061846143
:1012C00063E798F8040000F0030003287FF45DAFA3
:1012D000C6F8089049F00101D8F804004008400021
:1012E000C8F8040069600AE0706980450AD1B068F6
:1012F00075618144C6F8089049F00100686045F8BE
:10130000099053E1C808C0004FEAD00ABAF1200F93
:10131000814435D2D8F80C70D8F80840B84508BFD9
:1013200000F058F9A04508BF00F054F9D8F80400BF
:10133000C008C000B0EBCA0F18BF00F04BF906F1AF
:10134000280000EBCA00844206D031698C42C0F00C
:101350007F80E16841457BD1A74206D130680121F9
:1013600001FA0AF18843306074E0874205D03069A1
:1013700087426DD3B86840456AD1E760BC6069E0D8
:10138000D8F80C40D8F8187044450DD0D8F80800AB
:101390003169884222D3C168414504BFA1684145F3
:1013A0001CD1C460A0601BE008F11402146834B9B9
:1013B00008F1100214689CB101E01A46146804F1A7
:1013C00014031968002902BF04F1100318680028EB
:1013D000F3D131698A4228BF106001D200F0FAF8D7
:1013E000002F37D0D8F81C1006F5987000EB81005C
:1013F000026890450AD10460200012D1D8F81C0080
:101400007168012282409143716023E03069874214
:1014100005D33869404514BF7C613C6101E000F0B0
:10142000D9F8BCB131698C4212D3A761D8F8100049
:1014300028B1884226BF2061846100F0CBF8D8F83B
:10144000140038B13169884202D36061846101E0DF
:1014500000F0C0F849F00100686045F80990706933
:1014600085420BD1C6F80890A0E048084000C8F8B3
:10147000040049F00100686045F809904FEAD90777
:10148000202F22D206F1280000EBC704A046B9F1B4
:10149000100F38BF00F09EF8306820FA07F1C90736
:1014A00005D4012101FA07F70743376006E0A06879
:1014B000316988422CBF804600F08CF8A560C8F8DE
:1014C0000C50C5F80880EC6070E05FEA192008BF96
:1014D000002223D0B0F5803F28BF1F221ED2A0F5E6
:1014E0008071090C01F008018840A0F58052120CAF
:1014F00002F004029040A0F580431B0CC1F10E01E4
:1015000003F00203891AC91A984001EBD031C81DB3
:1015100029FA00F202F0010202EB410206F598718D
:1015200001EB8200002169612961EA61716821FA99
:1015300002F3DB0707D4012303FA02F20A437260C5
:101540000560A8611DE001681F2A1DBF5208C2F195
:10155000190209FA02F24A4600E001464868C0084A
:10156000C000484526D001F11003D40F03EB8403DB
:10157000520018680028F0D13069834204D31D60FE
:10158000A961ED60AD6001E000F024F8306A401E12
:1015900030620BD1D6F8C80100E080680028FCD189
:1015A0004FF0FF30306201E000F014F8AFF300803C
:1015B000BDE8F38732698868914228BF9042E3D33F
:1015C000C5608D60A860E9600020A861DEE70000CA
:1015D0001C140020012000F053B8F0B4024610683B
:1015E00095681318506803EB5004C00721D54D448B
:1015F0001FE0F0BC02F10C00704713F8017B05F806
:10160000017B491EF9D1A0B1B60813F8011B06F001
:101610000306032E08BF13F8016B01EB06214942B4
:10162000801C294405D011F8016B05F8016B401EA0
:10163000F9D1A342DDD013F8016B16F0030104BF0A
:1016400013F8011BC91C30090F28DAD113F8010B5C
:101650000F30D6E70749086808B1002070470648F0
:10166000C008C00008600549C908C900091A01601E
:10167000704700BFCC170020DF1B0020D81D0020C2
:1016800080B500F007F8024A11001820ABBEFBE756
:101690002600020010B500F031F802000023DB4301
:1016A00000241068984203D011000220ABBE1460E1
:1016B0005068984203D0111D0220ABBE546010BD8B
:1016C00010B584B0040000F019F8A10042181068A9
:1016D0000021C94388420DD107A00090002C01D100
:1016E000002000E0042001900320029069460120C0
:1016F000ABBE106004B010BD3A747400004870476F
:10170000F00200202DE9F04F0FF2B019A1B0D9E995
:101710000045CDE90045049100212A9EDFF8FC8BAD
:101720008DF843600D914FF0FF39824615461F46F4
:101730000FE0AB4634461BF8011B0498D047002845
:10174000049000F0A7800D98401C641E0D90F2D10B
:1017500035442878252807D100210791089109915F
:101760000A910B910C910DE06A464946284600F01B
:10177000C1FF060001D10D98A8E0DAD50126E7E700
:1017800041F0010115F8010F2028F9D023280DD0D0
:101790002B2804D02D2806D030280AD07CE041F038
:1017A000020189B2EEE741F00401FAE741F00801D5
:1017B000F7E741F01001F4E700200F9009E00F98DF
:1017C000404505DA00EB800302EB4302303A0F920A
:1017D0006D1C2A78A2F130000A28F0D32A782E2A2C
:1017E00018BFCDF8389023D115F8010F2A2807D15A
:1017F000386838606D1C50F8042B38600E9217E082
:101800002D280CBF15F8010B002000220E920AE0D3
:1018100040B90E9A424505DA02EB820403EB440319
:10182000303B0E936D1C2B78A3F130020A2AEFD3C4
:10183000ADF840100FF28C00297800F065FF08B178
:1018400015F8010B8DF842009DF84200682804BF8E
:101850002978682903D162208DF8420007E06C28BE
:1018600004BF28786C2803D171218DF842106D1CBB
:1018700012A806903A4615F8013B02A9504600F01E
:1018800065F838B912AA02A9504600F0C7F9002835
:101890007FF55FAF484619E02A288DD13868386057
:1018A00050F8042B3860002A0F9204D5524241F0C0
:1018B00004010F9289B26D1C90E700000000000047
:1018C00000000000686A6C747A4C000021B0BDE82A
:1018D000F08F622820D0682811D06A2803D06C28A5
:1018E00027D0712825D10868C01D20F007000860A6
:1018F000D0E9002308300860194610467047002AD6
:101900000A680A60106803D0121D0A6000B217E06E
:10191000121D0A6080B217E0002A0A680A60106887
:1019200003D0121D0A6040B20AE0121D0A60C0B264
:101930000AE0002A0A680A60106803D0121D0A60D3
:10194000C1177047121D0A60002170477CB50D4613
:1019500011461C462E69B4F1250200F04D811C3A57
:1019600000F08680121F022A40F282800E3A00F0B8
:101970000781521F5AD0093A7AD0921E16D0521EB1
:1019800035D0521E022A73D9121F30D0521F00F0D8
:101990009A80521E4AD0521E00F0E480D21E00F0FF
:1019A000FD80921E42D0D21E40D02BE195F83A2005
:1019B0006C2A09D06869421C6A610A680A6052F898
:1019C000043B0A60335427E10A680A6052F8043B7A
:1019D0000A600021009301914FF0FF322A632946EB
:1019E0006A4600F096F9002840F1168101E195F869
:1019F0003A000122FFF76DFFC5E90001002399427B
:101A000004DA6869411C69612D210DE0288F810786
:101A100004D56869411C69612B2105E0C00722D506
:101A20006869411C6961202131541CE095F83A0035
:101A30000022FFF74EFFC5E9000195F838000107C5
:101A400011D5D5E900230020834208BF82420AD085
:101A500044F02000782806D1686930213154401CB8
:101A6000411C69613454214668693044E86083E070
:101A70000868C01D20F007000860D0E90023083086
:101A80000860C5E90023D5E90001C80F04D06869E2
:101A9000411C69612D210DE0288F810704D56869FB
:101AA000411C69612B2105E0C00704D56869411C10
:101AB00069612021315468693044E8602146284634
:101AC00000F034FAA8E005F13A02507820B14FF066
:101AD000FF340FF6203070E01078622808D06828B4
:101AE00024D06A2812D06C282ED071280ED02BE07A
:101AF0000A680A6052F8040B0A6020B94FF0FF34FC
:101B00000FF6083059E0E96A017085E00A680A605A
:101B100052F8040B0A6020B94FF0FF340FF6EC20A6
:101B20004BE0EA6AD317C0E9002375E00A680A604F
:101B300052F8040B0A6020B94FF0FF340FF6CC20A6
:101B40003BE0E96A018067E00A680A6052F8040B2A
:101B50000A6020B94FF0FF340FF6B0202DE0E96A9B
:101B6000016059E00A680A6052F8040B0A6000211B
:101B7000C5E90001EE607821284600F029F94BE024
:101B80006C2285F83A200B680B6053F8042B0B602D
:101B900052BB4FF0FF340FF6A8200EE095F83A2024
:101BA0006C2AF0D00868086050F8044B0860EC60BC
:101BB0003CB94FF0FF340FF66C2000F0B1FD201A55
:101BC00076BD2E6B002E04D5204600F0CBFD0446DA
:101BD00008E032460021204600F0E0FD002814BF56
:101BE000041B3446AC6117E0294600F092F8002847
:101BF00012D54FF0FF3076BD6869411C696125211F
:101C0000315409E06869411C696125223254200081
:101C100002D0481C68617454002076BD2DE9F04163
:101C20000E460546716B7069B46A091A306A091A62
:101C3000B069091A706A091AF069091A96F8380029
:101C40000C1B410790460DD4002C0BDD2746B068D5
:101C50002021A8470028B06057D0F06A401C7F1EA2
:101C6000F062F4D1736942463146284600F0AAFC7E
:101C700000284AD1376A002F0ADDB0683021A84712
:101C80000028B06041D0F06A401C7F1EF062F4D1A1
:101C9000B369F2683146284600F094FCA8BB776A25
:101CA000002F09DDB0683021A847B06068B3F06A42
:101CB000401C7F1EF062F5D1F068B169F3694218EB
:101CC0003146284600F07EFCF8B9B76A002F09DDDE
:101CD000B0683021A847B060B8B1F06A401C7F1EE0
:101CE000F062F5D196F8380041070BD5002C09DDDC
:101CF000B0682021A847B06038B1F06A401C641E6B
:101D0000F062F5D10020BDE8F0814FF0FF30BDE872
:101D1000F0812DE9F0470E46A4B0356B002D8146C9
:101D2000904648BF6FF0004500F064FD716B4018AD
:101D30000FF628118128D1E90023CDE9012328BF1E
:101D40004FF0FF303ED20024002D2FDDD8F80010D8
:101D500001AA684600F0D0FC0746002F35D4D8F819
:101D6000000008B97F1E30D4BD421FDB70693818EF
:101D700081280AD30020706303AA31464846FFF742
:101D80004DFF040012D40020706103A8D6F814A0FF
:101D90003A466946504400F033FDBA44C6F814A0F0
:101DA00058F8040B002818BFED1BCDD12CB903AA9D
:101DB00031464846FFF732FF044614B900207061EF
:101DC0007063204624B0BDE8F0874FF0FF34F8E799
:101DD0002DE9FC4B06468B463469BBF16F0F08BFFB
:101DE000082505D04BF02001782914BF0A251025BD
:101DF0003C27D6E90023BBF1640F18BFBBF1690F84
:101E00009046994606D100218B4203DAD8F10008AA
:101E100069EB49090020814508BF80451FD1306B1F
:101E2000E8B9082D4ED196F8380001074AD5302080
:101E30003B2784F83B0045E000280ED596F8380093
:101E400000F01400102808D1726B7069121A306A01
:101E5000121A511A0029C8BF3162BDE8F38B0196EE
:101E60008DF800B0404649462A46EB1700F01CFDAD
:101E700030327F1ED2B23A2A04DB9DF80000A0F176
:101E800051018A18E255404649462A46EB1700F0B0
:101E90000BFD894600228046914508BF904504D03D
:101EA0000198C168E0198142DCD3082D019E09D157
:101EB00096F83800010705D5E15D302902D07F1E74
:101EC0003020E055E019F060C7F13C01306BB161A2
:101ED0008142B1DA411A31624FF6EF70318F014021
:101EE0003187BDE8F38B2DE9D04306460F461446F3
:101EF0004FF00008DFF8289412E0E00707D54246CB
:101F00004B463046394600F047FD06460F464046F0
:101F1000494642464B4600F03FFD641080468946E4
:101F2000002CEAD130463946BDE8D0832DE9F04790
:101F300005468A468EB0D5E900894AF0200061281E
:101F400002AF00900AD0286B002802D50620286333
:101F500004E001BF0098672801212963D5E90064E6
:101F600060004015401C0DD121030BD0AAF1610186
:101F700003201A29A86102D20FF2E86110E00FF2E3
:101F8000E8610DE060004015401C0ED121030CD12A
:101F9000AAF1610103201A29A86116D30FF2D061BA
:101FA000E868032200F02CFCCAE124F00043B3F5FA
:101FB000801F26F0000211D20020834208BF824217
:101FC000019005D13046214612E00FF2A061E7E70B
:101FD00001AA3046214600F0B1FD09E0D148D249BE
:101FE00000EB1350019004EA0102D049304611433E
:101FF000C5E90001009A612A0DD1E868302101701D
:10200000811CE960BAF1610F0CBF78215821417041
:102010006869801C6861D5E90023CDE90C23DDE9FE
:102020000C0121F0004100220023994204BF90429C
:10203000002000F04D810098612840F09C80286BC2
:1020400000284CBF2120401C00904046009E761C7A
:102050004946DDE90C8900F0A9FD01988DF80820BA
:1020600038BF89F00049001F0190002E0DF10900D2
:1020700040F33C810746404649460022002300F0D9
:10208000ADFD80F032814800400D00F11C0211D0FE
:10209000002A0FDD40F2FF70824205DBA44909F0FF
:1020A00000400143002012E06FF31E5141EA02514B
:1020B00040460CE029F0004128F00000994208BF9A
:1020C00098420FBF49461C22494600F09FFD8046BA
:1020D000894600F039FEF61F002E044609DD00F0A7
:1020E00051FE02460B464046494600F05DFE8046E2
:1020F0008946F81D072104E004F00F0200F8012DC5
:102100002411002C01DD491EF6D5491E5CBF0022BA
:1021100000F8012DF9D5E4E00020194602AA0A448E
:1021200000E05B1E12F80149491E8442F9D00F28D5
:1021300004D10DF10900425C521C4254002904D51F
:102140000198001D02AF5B1C0190581E0CD4391879
:10215000AAF13A040A783032D2B2392AC8BFA2189A
:10216000401E01F80129F5D5286B002840F1AF8009
:10217000591E2963ABE04046494600F017FD01991E
:1021800038BF89F0004947F297504143694A91FBB3
:10219000F2F20192D2F1070204DD40464946FFF710
:1021A000A2FE0AE0524200206349FFF79CFE02466D
:1021B0000B464046494600F069FE804600985F4E57
:1021C0006628286B06BF019C0A3406242418142CA8
:1021D000C8BF142430208DF8080089460DF109008D
:1021E00000E03846002C34DD07464046494600F002
:1021F00071FF01460A4607F1080304200A27B2FBD3
:10220000F7F707EB870EA2EB4E02303203F8012CF2
:102210000A22B7FBF2F202EB820EA7EB4E07303731
:10222000401E03F8027DE9D1083C002C03F10807A9
:10223000D7DD084600F062FF02460B46404649469D
:1022400000F0B2FD0022334600F0A6FB804689462E
:10225000CBE70DF10901401A0DF1090704E00199DE
:10226000491E401E01917F1C39783029F7D0009A11
:10227000662A02D10199491C03E0652A0CBF01219D
:1022800000212B6BCB189842B8BF431E002B1ED4E5
:10229000834204DAF85C3528A8BF392000DA302000
:1022A00019467A1E02EB010800E05B1E18F801993E
:1022B000491E8145F9D0392802D1785C401C7854F8
:1022C000002904D50198401C17465B1C0190019819
:1022D00000B200901BB23A465146284600F033F84F
:1022E0002EE0C71D002E3FF7C6AE38460DF109019E
:1022F000401A009903468842C8BF0B46002B0DF1D7
:1023000009073FF531AF8342BFF606AF0DF1090073
:10231000C05C07287FF700AF0F20FEE6CBCCCC0CCB
:102320000000244002FCFFFFFFFF0F800000E03FA1
:102330000000F07FA08601000000F03F84D79741A5
:102340000EB0BDE8F0872DE9F04F83B006468B460E
:102350009246994600F0D2F9B9F1000F406AD6F8DA
:102360003080077803DC4FF001090FF2083ABDF91D
:1023700030504BF02000662808BF6D1C17D067282E
:1023800040F0878015F1040FC0F28980454580F246
:10239000868096F838006D1C010702D4C145B8BF8D
:1023A000C8462DB2B8EB050848BF4FF000082DB263
:1023B000F068B169002D27DC4A1C30234354B8F182
:1023C000000F03DC96F83800010702D5F068875447
:1023D000521C18EB050FB8BFC8F100052DB2A84478
:1023E0006842C845B8BFC146B26170620FFA89F44D
:1023F000F461F068B36922465146184400F000FACF
:10240000A8EB0400B062C6E02A469145084418DAF9
:102410004A46514600F0F4F9B0694844B061A5EB72
:102420000901B8F1000F716203DC96F838100A0751
:1024300004D5F1680F54F069401CF061C6F828809B
:10244000A9E0514600F0DCF9B0692818B8F1000F96
:10245000A9EB050303DC96F838100A0702D5F168EA
:102460000F54401CB0610FFA83F9C845B8BFC1468C
:10247000F068B3690FFA89F422460AEB05011844A3
:1024800000F0BEF9B0692044B061A8EB04007062AE
:1024900081E0BBF1610F16D14FF0700B18E0C14520
:1024A00004DA96F838100A0758BFC846B8F1010890
:1024B00048BF4FF00008BBF1670F14BF4FF0450B4A
:1024C0004FF0650B04E0BBF1410F08BF4FF0500B1C
:1024D000B169F368481CB061B8F1000F1AF8012B1C
:1024E0005A5403DC96F838100A0719D5F168431CD2
:1024F000B3610F54B8F1000F12DDA9F101073FB22B
:10250000B845B8BF4746F0683FB23A46514618440E
:1025100000F076F9B0693818B061A8EB0700706276
:10252000F068B1690844002D80F800B003D42B2175
:102530004170811C03E02D2141706D42811C0020FF
:102540006A460AE02B460A2493FBF4F505EB850462
:10255000A3EB440302F8013B401C2DB2002DF1DC3B
:10256000012806DC4BF02002652A04BF302201F866
:10257000012B48B9302001F8010B07E0401E1DF87F
:102580000020303201F8012B0028F7DCF068B26936
:102590001044091AF16196F8380000F01400102870
:1025A0000DD17169B0694118706A4118F06941181C
:1025B000B06A4118706B8142BCBF411A316203B0EE
:1025C000BDE8F08FF8B505460E4617461C460020BC
:1025D00074B117F8011BB068A847B06030B1F06A59
:1025E000401CF0620020641EF3D1F2BD4FF0FF30BA
:1025F000F2BD00007072696E74665F733A20256EDA
:1026000020646973616C6C6F776564007072696EC9
:1026100074663A2062616420256E20617267756D70
:10262000656E74007072696E74665F733A206261E1
:102630006420257320617267756D656E74000000FB
:102640007072696E74665F733A2062616420256CF3
:102650007320617267756D656E7400000000000084
:10266000000000006E616E004E414E00696E660013
:10267000494E46003000B1F5807F02D34FF0FF3065
:1026800070470170012070470078401E8041C043B0
:10269000C00F70471A48704730B45368D418042BE1
:1026A00009DA41B1057804F8015B10F8015B15B156
:1026B0005B1C491EF3E7536030BC704738B51446C5
:1026C0001D4661B1FFF7E8FF61686A6B20469047DD
:1026D0006FF00102811A02D0491E03D005E06FF0AD
:1026E000010032BD4FF0FF3032BD0021616032BDCC
:1026F000DA6B1047024BE1E7014BF9E701487047FD
:10270000B0010020780100200278C9B28A421AB1D3
:102710001CBF10F8012FF9E718BF00207047010215
:1027200080B508B90FF21C0005490B681BB12222C5
:102730000021984701E0FEF74DFF222002BD000076
:10274000C8170020636F6E73747261696E742068BD
:10275000616E646C65723A20626164206D657373AA
:102760006167650000F10103810704D010F8011BC7
:1027700089B18107FAD10268B2F10131914311F0B8
:10278000803F04BF50F8042FF6E710F8011B11B189
:1027900010F8011BFBE7C01A70470000C9B283079D
:1027A00006D0521E22D310F8013B9942F7D11FE008
:1027B000083A13D302F1040241EA012141EA01413E
:1027C00050F8043B121F21BF4B40A3F1013C2CEAFF
:1027D000030C1CF0803FF3D0C9B2001F083210F880
:1027E000013B521E28BF91EA030FF8D818BF012001
:1027F000401E704780B5FFF74DFF006C02BD000022
:1028000062B38B0708D0521E11F8013B00F8013B60
:1028100000F024808B07F6D1830740F0208000BFB2
:10282000103A07D330B4B1E83810103AA0E83810A5
:10283000F9D230BC530724BFB1E80810A0E8081053
:1028400044BF51F8043B40F8043BD20724BF31F8A1
:10285000022B20F8022B44BF0B7803707047121F25
:1028600017D35B0009D151F8043B20F8023B1B0C45
:10287000121F20F8023BF6D20BE051F8043B00F89F
:10288000013B1B0A20F8023B1B0C121F00F8013B06
:10289000F3D238BF121D521E24BF11F8013B00F8BD
:1028A000013BF8D8704700001B4213D1094236D1D2
:1028B0002AB18446B0FBF2F002FB10C2704700F070
:1028C0002BBCFCD30022002370470B000200002128
:1028D00000207047904271EB030CF6D370B5B1FA4B
:1028E00081F4B3FA83F52C1BA340C4F1200532FA1E
:1028F00005F63343A2405FF00046E64002E05B0885
:102900005FEA3202841A71EB030524BF2046294690
:102910007641F4D302000B003000002170BD012A83
:10292000CFD970B5140C20D0B1FA81F4B2FA82F587
:10293000C4F120046419B4F12006D6D3B2405FF08C
:102940000044F440002502E052085FEA3303C61A4F
:1029500071EB020E24BF3046714664416D41F3D3E2
:1029600002000B002000290070BD0C46B1FBF2F103
:1029700002FB11452D0445EA1045B5FBF2F402FBBC
:10298000145580B240EA0545B5FBF2F002FB105247
:1029900040EA044070BD0000B0B581EA030C0CF0C1
:1029A000004C40F2FF7515EA11541DBF15EA13578C
:1029B000AC42AF4239E0E41923EA455343F48013B3
:1029C000C90241F0004141EA505EC7021100A7FB75
:1029D000020200284FF00000EEFB01204FF0000142
:1029E000E3FB072118BF42F00102401800214941D2
:1029F000E3FB0E01A4F580640F0302D252004041B4
:102A0000494154F101046CDD470872F1004250F174
:102A1000000051EB0451A1F580115CBF41EA0C01AB
:102A2000B0BD4CEA05510020B0BD05EA1357AC42D9
:102A300014BFAF4241E050EA410E1CBF52EA430EC0
:102A400002E061460020B0BD24423C441BD15FEA55
:102A5000070EF6D0090302BF01460020AEF1140EA6
:102A6000B1FA81F7AEEB070401FA07FE0C37C7F1A4
:102A7000200100FA07F7C8404EEA000E23EA45534A
:102A800043F48013A2E733F00043B3FA83F704BFA3
:102A9000B2FA82FE77440B3FE41BB7F1200E2FBF42
:102AA00002FA0EF3BB40C7F1200E22FA0EFE38BF29
:102AB00043EA0E03BA40641C82E750EA410E14BF99
:102AC00052EA430E6FF000014FF4001717EB430F6B
:102AD0008ABF194617EB410FB5E74CEA05510020B4
:102AE000B0BDD4F10104B4F120070FDAC4F120071E
:102AF000520828BF42F0010210FA07F501FA07F761
:102B0000E1BF2A43E0403843E1400FE0352C98DC38
:102B1000C7F1200452EA400220FA07F218BF42F03F
:102B2000010231FA07F0A1400A43002172F100428C
:102B300050F1000051EB0C01B0BD000010B514467F
:102B400000F002F8226010BDC1F30A5343B14A00FD
:102B500012F5001F28D2A3F2FE32A1EB02517047FA
:102B600050EA410C20D001F0004C31EA0C01B1FADE
:102B700081F204BFB0FA80F3D2180B3AB2F120030D
:102B80002CBF00FA03F1914041EA0C013EBFC2F1B3
:102B9000200C20FA0CF319439040524240F2FD33CE
:102BA000D21A01EB03517047002270474FF4001C0A
:102BB0001CEB410F94BF1CEB430F09E041EA030CEF
:102BC00050EA4C0C52EA0C0C03D2994208BF9042D6
:102BD000704714BF8B428242704700004FF4001CC4
:102BE0001CEB410F94BF1CEB430F09E041EA030CBF
:102BF00050EA4C0C52EA0C0C03D28B4208BF8242C2
:102C0000704714BF9942904270470000124254D45A
:102C100040F2FF7C1CEA11530FD0634531D09B1862
:102C200063453CBF01EB0251704701F0004141EAAE
:102C30000C510020AFF30080704750EA410320D0D0
:102C400001F0004C91EA0C011CD0B1FA81F30B3B6E
:102C50009A420DD9D21A994051EA0C01C3F1200CC5
:102C600020FA0CFC61449840531C40F2FF7CD7E7EB
:102C7000914041EA0C01C2F1200C20FA0CF31943F7
:102C800090407047B0FA80F31533202BE0D3202A10
:102C9000EED3203A203B9A4209D9D21A00FA03F126
:102CA00041EA0C010020531C40F2FF7CB8E700FA17
:102CB00002F141EA0C0100207047524240F2FF7CD1
:102CC0001CEA11530DD06345DBD0B2EB030C3CBFC3
:102CD000A1EB025170470CF1010221EA035141F4CA
:102CE000801150EA410CCCD001F0004C352A27DC91
:102CF00030B481EA0C01B2F1200309DAC2F12003F9
:102D0000044601FA03F5D0402843D1409C400CE032
:102D1000C3F12002450020FA03F418BF44F0010477
:102D200021FA03F091400C43002174F1004550F169
:102D3000000051EB0C01244230BC7FF47BAF7047A4
:102D40006146002076E70000C1F30A5340F2FE32EC
:102D50009B1A14DDD3F120034FEAE17208DDC902AA
:102D600041EA505141F00040D8408018504070472F
:102D700003F2E13010B1D24382F0004070470020EE
:102D800070470000C11768B14840401AB0FA80F29D
:102D90009040D21CC907C2F5846241EA025202EB9C
:102DA000D02140057047000070B44FF0004591EA13
:102DB000030F40F1B3816B40841A71EB030603D219
:102DC000001BB141121973414FF4001C1CEB410F61
:102DD00034BF7CEB430442E00C0DA4EB1356352EBC
:102DE0004FDC45EAC323DB0A45EAC121C912B6F12B
:102DF00020050DDD63FA05F6EB4086EA0305124275
:102E000018BF45F00105C01851F100010CD213E0C4
:102E100062FA06F5F2405540F3415A40B340F340A0
:102E20005A408018594107D349085FEA30005FEAE9
:102E3000350528BF45F0010501F58011420875F1FF
:102E4000004250F1000041EB04514E0016F5001F06
:102E500070BC38BF70470020090D090570471CEB96
:102E6000410F10D252EA43060BD0BCEB410F05D8FC
:102E70000C0DAB43661E342EB6DD02E0AB4380186A
:102E8000594170BC704770BC70470000F0B540F20B
:102E9000FF7581EA030C0CF0004C15EA11541DBFBC
:102EA00015EA1357AC42AF42E5E0BC41C1F3130150
:102EB000C3F31303801A994143F4801304D2641EB0
:102EC0004000494180185941C90241EA5051B1FBC3
:102ED000F3F603FB1611A2FB0675D7EBC020A94140
:102EE00002D2761E80185941C90241EA5051B1FB05
:102EF000F3FE03FB1E11A2FB0E75D7EBC020A94108
:102F000003D2AEF1010E80185941890241EA905175
:102F1000760546EA8E2EB1FBF3F603FB1611A2FBF3
:102F20000675D7EB8020A94102D2761E8018594140
:102F3000C90241EA50514EEA060EB1FBF3F603FB1B
:102F40001611A2FB0675D7EBC020A94102D2761E4E
:102F500080185941C90241EA5051B1FBF3F703FB14
:102F60001711A2FB0735D3EBC020A94167F1000779
:102F70000CBF004247F0010766F3D5274FEA1E3128
:102F8000B80814F5806412DDBD0775F1004250EBFE
:102F90000E5051EB045111F5801F5CBF41EA0C014A
:102FA000F0BD4CF07F6141F0E0410020F0BDBD0775
:102FB0006D0840EA0E5041F48011D4F10104B4F1DF
:102FC00020060ADAC4F120060200E04001FA06F306
:102FD000E1401843B24015430EE0342C13DCC6F137
:102FE000200445EA40056D0820FA06F2154321FA4F
:102FF00006F0A1400D43002175F1004250F10000A0
:1030000051EB0C01F0BD00205FEA0C01F0BDCFB91F
:1030100092185B41B3FA83F704BFB2FA82F6BF1984
:103020000B3FB7F120062FBF02FA06F3BB40C7F1F2
:10303000200622FA06F638BF3343BA401CB1E41921
:10304000641E33E77F4231F00041B1FA81F404BFDE
:10305000B0FA80F6A4190B3CB4F120062FBF00FA99
:1030600006F1A140C4F1200620FA06F638BF31432C
:10307000A0403C1B1AE7AC421ABF05EA1357AF4207
:1030800012E050EA41061CBF52EA4306BFE750EA8D
:103090004107304661461CBF41EA0551F0BD52EA86
:1030A000430C08BFC143F0BD00204FF4001616EBDF
:1030B000410F98BF16EB430F08BF16EB410F24BF1B
:1030C000C14305E016EB430F0CBF61464CEA0551C6
:1030D000F0BD0000400D491840EA81200CD2490D96
:1030E000A1F58061491C40F0004005DBD1F11F01D2
:1030F00054BFC840C017704700207047014648B110
:10310000B0FA80F18840C91CC1F58461090501EB62
:10311000D02140057047000070470000841A71EB11
:10312000030604D26E40001BB141121973414FF4E3
:10313000001C1CEB410F34BF7CEB430682E00C0DFE
:10314000A4EB1356362E7BDC012E45EAC32341DC6B
:1031500043EA525312BFD20292025B08240545EAA9
:10316000C12141EA5051D2EBC020994125D407D169
:10317000B0FA80F610FA06F162D00020203608E09E
:10318000B1FA81F6B140C6F1200220FA02F21143F1
:10319000B0404FEAF474B4EB465434F001064FEA01
:1031A00074040AD8D6F50016760D04F00044F040F9
:1031B00061FA06F25040F1404840C00A40EA4150EE
:1031C00021F0004128BF5FEA500550F1000044EBB8
:1031D000D12135E0DB0A45EAC121C90AB6F1200553
:1031E0000EDD42EA0242120CC5F1200603FA06F691
:1031F000EB4042EA06056D42984161F100010DE0A5
:1032000062FA06F5F240554063FA06FC82EA0C02C7
:10321000F3405A406D42904161EB030111F4801F6D
:1032200005D1641E620502D06D004041494121F480
:103230008011430875F1004350F1000041EB045147
:1032400070BC70471CEB410F15D223F0004352EACB
:1032500043060BD04FEA4C0CBCEB410F04D80C0DCD
:10326000661E342EB7DDEBE7801A994150EA41061D
:1032700008BF0021E4E708BF1CEB430F28BF6FF035
:103280000001DDE70EB4002003B070474FF43F416A
:10329000B0F840201143A0F84010002070474FF4D0
:1032A0003F41B0F8402032EA0101A0F84010002070
:1032B0007047002070470EB400B50121A0F84010FF
:1032C0000021A0F840100021A0F844100021A0F82F
:1032D0005010FFF7DBFF00205DF810FB30B4002238
:1032E0000B7830F8234048F68F131C40CB78002B26
:1032F00005D0022B06D009D3032B04D009E054F4E7
:10330000007407E006E054F4C06403E054F4806401
:1033100000E0012244F4004454F080040B7820F8CB
:1033200023400B7830F8234048F68F731C400B780D
:103330001C4344F4004454F080040B7820F82340EC
:103340000B7B002B40F0A2804B78002B3FD0B0F8D5
:1033500050301B180C7813EB041313F58063CC88E2
:10336000A4B2640864001C800B7830F823305B063C
:103370000CD50B7830F8234048F68F731C4044F48A
:10338000004454F0C0040B7820F82340CB78012B84
:103390000FD00B7830F8234048F6BF731C4094F0F0
:1033A000200444F4004454F08004097820F82140BB
:1033B00045E10B7830F8234048F6BF731C4044F4D5
:1033C000004454F08004097820F8214037E1B0F837
:1033D00050301B180C78E40013EB440313F58163A1
:1033E000CC88A4B2640864001C80B0F85040241853
:1033F0000B78DB0014EB430404F20C440B69002B44
:1034000009D1258848F2FF331D402580238853F4D5
:103410000043238016E00B693F2B08D20B695B0841
:103420000D7CED0700D55B1C9B0223800AE00B6935
:103430005B090D7C15F01F0F00D15B1E9B0253F43E
:10344000004323800B7830F823305B040CD50B78D5
:1034500030F8234048F68F731C4044F4404454F045
:1034600080040B7820F823400B7830F823404BF68B
:103470008F731C4094F4805494F4005444F400443A
:1034800054F08004097820F82140D8E00B7830F817
:10349000234048F68F731C4044F4014454F08004E8
:1034A0000B7820F82340B0F850301B180C7813EB41
:1034B000041313F580630C89A4B2640864001C80B3
:1034C000B0F850301B180C78E40013EB440313F5EC
:1034D00081634C89A4B2640864001C804B78002B83
:1034E0004FD10B7830F823305B040CD50B7830F8D3
:1034F000234048F68F731C4044F4404454F0800449
:103500000B7820F823400B7830F823305B060CD57D
:103510000B7830F8234048F68F731C4044F4004485
:1035200054F0C0040B7820F823400B7830F8234087
:1035300048F68F731C4044F4004454F0C0040B78E8
:1035400020F823400B7830F823404BF68F731C4053
:1035500094F4805494F4005444F4004454F08004EF
:103560000B7820F823400B7830F8234048F6BF73DF
:103570001C4044F4004454F08004097820F82140B1
:103580005DE00B7830F823305B040CD50B7830F815
:10359000234048F68F731C4044F4404454F08004A8
:1035A0000B7820F823400B7830F823305B060CD5DD
:1035B0000B7830F8234048F68F731C4044F40044E5
:1035C00054F0C0040B7820F823400B7830F82340E7
:1035D00048F68F731C4044F4404454F080040B7848
:1035E00020F82340CB78012B0FD00B7830F8234004
:1035F00048F6BF731C4094F0200444F4004454F097
:1036000080040B7820F823400CE00B7830F823403E
:1036100048F6BF731C4044F4004454F080040B7817
:1036200020F823400B7830F823404BF68F731C4072
:1036300044F4004454F08004097820F8214010003C
:10364000C0B230BC70470A7B002A42D14A78002AB7
:103650001FD00A7830F8222052060CD50A7830F8AC
:10366000223048F68F72134043F4004353F0C003F6
:103670000A7820F822300A7830F8223048F6BF72F3
:10368000134043F4004353F08003097820F82130BD
:10369000B9E00A7830F8222052040CD50A7830F8C4
:1036A000223048F68F72134043F4404353F08003B6
:1036B0000A7820F822300A7830F822304BF68F72E0
:1036C000134043F4004353F08003097820F821307D
:1036D00099E04A78002A4BD10A7830F82220520427
:1036E0000CD50A7830F8223048F68F72134043F434
:1036F000404353F080030A7820F822300A7830F8EB
:10370000222052060CD50A7830F8223048F68F7203
:10371000134043F4004353F0C0030A7820F82230EA
:103720000A7830F8223048F68F72134043F4004391
:1037300053F0C0030A7820F822300A7830F822309B
:103740004BF68F72134043F4004353F080030A7822
:1037500020F822300A7830F8223048F6BF72134041
:1037600043F4004353F08003097820F821304AE005
:103770000A7830F8222052040CD50A7830F822302A
:1037800048F68F72134043F4404353F080030A78A5
:1037900020F822300A7830F8222052060CD50A7818
:1037A00030F8223048F68F72134043F4004353F050
:1037B000C0030A7820F822300A7830F8223048F620
:1037C0008F72134043F4404353F080030A7820F88B
:1037D00022300A7830F8223048F6BF72134043F4A2
:1037E000004353F080030A7820F822300A7830F83A
:1037F00022304BF68F72134043F4004353F08003A2
:10380000097820F821300020704770B504000E00C0
:103810007078012840F0DC803069B169884204D2B8
:103820003569B069401BB06102E0B5690020B06144
:10383000307B002812D12B009BB2F28871692000E6
:1038400000F010FA2100B4F8500041183078C000A0
:1038500011EB400101F204410D80A7E0307834F80B
:10386000200040063DD52100707800282AD1210093
:10387000B4F8500041183078C00011EB400101F25B
:103880000C41002D09D10A8848F2FF3002400A801D
:10389000088850F40040088013E03F2D07D228002C
:1038A0004008EA0700D5401C8002088009E0280093
:1038B000400915F01F0F00D1401E800250F4004057
:1038C00008800CE07078012809D1B4F85000411844
:1038D0003078C00011EB400101F20C410D8072897B
:1038E0003CE0707800282AD12100B4F8500041183B
:1038F0003078C00011EB400101F20441002D09D1E4
:103900000A8848F2FF3002400A80088850F40040DC
:10391000088013E03F2D07D228004008EA0700D5B1
:10392000401C8002088009E02800400915F01F0FA4
:1039300000D1401E800250F4004008800DE07078F5
:1039400001280AD12100B4F8500041183078C00095
:1039500011EB400101F204410D8032892B009BB232
:1039600092B27169200000F07DF9707800280DD1C5
:10397000307834F8201048F68F70014041F400414F
:1039800051F0C001307824F820100FE07078012841
:103990000CD1307834F8201048F68F70014041F493
:1039A000404151F08001307824F82010307834F80C
:1039B000201048F6BF70014091F0100191F02001F5
:1039C00041F4004151F08001307824F82010C2E029
:1039D0003069B169884204D23069B169091AB161AC
:1039E00002E0B0690021B161317B00292AD12200B7
:1039F000B4F850108A183178C90012EB410202F273
:103A00000C42002809D1118848F2FF300140118092
:103A1000108850F40040108013E03F2807D20100C6
:103A20004908C00700D5491C8802108009E0010040
:103A3000490910F01F0F00D1491E880250F40040C0
:103A4000108077E0717800292AD12200B4F8501054
:103A50008A183178C90012EB410202F204420028B0
:103A600009D1138848F2FF310B401380118851F4BB
:103A70000041118013E03F2807D201004908C30725
:103A800000D5491C8902118009E00100490910F0A4
:103A90001F0F00D1491E890251F4004111800DE031
:103AA000717801290AD12200B4F850108A183178AF
:103AB000C90012EB410202F2044210802200717828
:103AC00000292AD12200B4F850108A183178C90090
:103AD00012EB410202F20C42002809D1118848F28F
:103AE000FF3001401180108850F40040108013E036
:103AF0003F2807D201004908C00700D5491C8802A9
:103B0000108009E00100490910F01F0F00D1491E83
:103B1000880250F4004010800CE07178012909D12E
:103B2000B4F850108A183178C90012EB410202F241
:103B30000C421080307834F820104BF68F70014022
:103B400091F4805191F4005141F4004151F0800111
:103B5000307824F82010002070BD4A78002A0FD059
:103B60000A7830F8223048F6BF72134093F0100301
:103B700043F4004353F08003097820F821300EE02D
:103B80000A7830F822304BF68F72134093F480534A
:103B900043F4004353F08003097820F821300020DB
:103BA00070470A7B002A4AD14A78002A24D00A7832
:103BB00030F8222052060CD50A7830F8223048F628
:103BC0008F72134043F4004353F0C0030A7820F887
:103BD0002230CA78012A32D00A7830F8223048F6EA
:103BE000BF72134093F0200343F4004353F080036B
:103BF000097820F8213022E00A7830F82220520497
:103C00000CD50A7830F8223048F68F72134043F40E
:103C1000404353F080030A7820F822300A7830F8C5
:103C200022304BF68F72134093F4805393F4005379
:103C300043F4004353F08003097820F8213000203A
:103C40007047C9B2002902D18021A0F84C10002091
:103C500070470020704700207047B0F8440070475C
:103C60000020704710B49BB25B1C5B0892B210EB53
:103C7000420010F580600AE00A78491C0C782402A2
:103C8000A4B222430280801C801C491C5B1E002BB6
:103C9000F2D110BC704710B49BB21C00640892B201
:103CA00010EB420010F5806008E00288801C0A706A
:103CB000491C120A0A70491C801C641E002CF4D195
:103CC000DA0701D50088087010BC704710B586B0BF
:103CD0000400002C01D1012095E094F8290200286D
:103CE00005D1002084F82802200000F04FFC0320BA
:103CF00084F829022068FFF7D2FA211D83B06846B4
:103D00002022FEF78DFD0EBC2068FFF7BBFA0028CD
:103D100004D0022084F82902012074E000212068E8
:103D2000FFF7C7FA002025E00121C0B2420122447A
:103D300082F82910C0B24101214481F82800C0B2A4
:103D4000C0B241012144C8860021C0B242012244D0
:103D500082F82B100021C0B242012244916300215D
:103D6000C0B242012244D1630021C0B242012244C8
:103D70001164401CC0B261688842D5D3002023E0A2
:103D80000021C0B24201224482F82911C0B241018F
:103D9000214481F828010021C0B24201224482F866
:103DA0002B110021C0B242012244C2F83811002177
:103DB000C0B242012244C2F83C110021C0B242010B
:103DC0002244C2F84011401CC0B261688842D7D377
:103DD000211D83B068462022FEF722FD0EBC20681C
:103DE000FFF769FA002804D0022084F82902012094
:103DF00009E0002084F82400012084F829022068CA
:103E0000FFF729FF002006B010BD10B5040094F89C
:103E10002802012801D1022010E0012084F82802A4
:103E20000121200000F0F9FC2068FFF712FF206854
:103E3000FFF72CFA002084F82802002010BD10B5EE
:103E400004002068FFF709FF000402D5200000F0FD
:103E5000D7F92068FFF701FF40050FD52068B0F8BB
:103E600044104FF6FF3001402068A0F844102000B5
:103E700000F0CBFB0021200000F08EF82068FFF757
:103E8000ECFE400408D52068B0F844104BF6FF70F3
:103E900001402068A0F844102068FFF7DEFE80048F
:103EA00008D52068B0F844104DF6FF700140206836
:103EB000A0F844102068FFF7D0FEC0041DD520688C
:103EC000B0F840104FF6FB7001402068A0F8401099
:103ED0002068B0F840104FF6F77001402068A0F855
:103EE0004010200000F0B4FB2068B0F844104EF6FB
:103EF000FF7001402068A0F844102068FFF7ADFE75
:103F0000000529D52068B0F8400050F0080021686D
:103F1000A1F840002068B0F844104FF2FF70014053
:103F20002068A0F844102068B0F8400050F0040069
:103F30002168A1F840002068FFF78FFEC00408D573
:103F40002068B0F844104EF6FF7001402068A0F8D9
:103F50004410200000F06CFB2068FFF77EFE800517
:103F60000BD52068B0F844104FF6FF500140206890
:103F7000A0F84410200000F042FB2068FFF76DFE1F
:103F8000C00508D52068B0F844104FF6FF60014026
:103F90002068A0F8441010BD10B5040094F8280261
:103FA000012801D102200CE0012084F8280284F8C5
:103FB0002410C9B22068FFF744FE002084F82802CC
:103FC000002010BD70B505000026C9B2080609D54D
:103FD000C9B211F007004001284410F12804012063
:103FE000607008E0C9B211F007004001284410F5E4
:103FF00094740020607011F00701217092B2226168
:10400000E3706078002801D02078E081DBB2022BD9
:1040100001D10020207195F82802012801D1022049
:104020000BE0012085F8280221002868FFF756F9E7
:10403000002085F828023000C0B270BD10B5040021
:10404000C9B2080608D5C9B211F0070040012044E2
:1040500028300122427008E0C9B211F00700400187
:10406000204410F594700022427011F00701017095
:1040700094F82812012901D102200AE0012184F8D4
:10408000281201002068FFF7DEFA002084F82802D9
:10409000002010BD10B50C00E4B214F00701490176
:1040A000014411F594714A618B610022CA610022BA
:1040B0004A7014F007020A7014F0070F03D1006869
:1040C000FFF7A3FB02E00068FFF79FFB002010BD95
:1040D000C9B211F0070149010844D0F84401704702
:1040E00010B50C00E4B214F0070149010144283175
:1040F0004A618B610022CA6101224A7014F00702F2
:104100000A7014F0070F03D10068FFF77EFB02E08E
:104110000068FFF77AFB002010BD38B504000D00E1
:104120006068EDB215F00701884201D2012030E04D
:10413000EDB2280609D5EDB215F007004001204484
:1041400010F128010120487006E0EDB2680120441A
:1041500010F59471002048700120887015F0070058
:10416000087094F82802012801D1022011E00120F2
:1041700084F828022068FFF7F0FC15F0070F04D13F
:1041800014F50C712068FFF76BFD002084F82802FD
:10419000002032BD10B504006068C9B211F00F02F2
:1041A000904201D201202AE0C9B2080608D5C9B25E
:1041B00011F007004001204428300122427008E03D
:1041C000C9B211F007004001204410F5947000229C
:1041D00042700022827011F00701017094F82812D9
:1041E000012901D102200AE0012184F828120100EE
:1041F0002068FFF7D6FC002084F82802002010BDBC
:104200002DE9F041060033E03068018848F60F7070
:10421000014051F400413068018016F128043068F3
:10422000B0F85000217810EBC100316811EB40016B
:1042300001F20441088880B28005800DE061606968
:10424000E169084460610021300000F0CDF996F882
:10425000240000280CD0A069002809D196F8240079
:1042600050F080003168A1F84C00002086F824004E
:104270003068B0F84400000440F185813068B0F83F
:10428000440010F00F05EDB2002D40F09880C006FC
:10429000BAD516F5947430680088010524D53068C5
:1042A000B0F85000217810EBC100316811EB4001EB
:1042B00001F20C41088880B28005800DE061E3695D
:1042C0009BB2E28816F50C713068FFF7E4FC3068A9
:1042D000018840F68F70014051F080013068018004
:1042E000300000F06DF9C3E70004C1D530680188E3
:1042F00040F68F70014051F08001306801803068D5
:10430000B0F85000217810EBC100316811EB40018A
:1043100001F20C41088880B28005800DE061E069FF
:10432000002811D0606900280ED0E3699BB2E288B2
:1043300061693068FFF7AFFC6069E169084460615A
:104340000021300000F044F931683068B0F85000C6
:10435000411801F20C412069002809D10A8848F26D
:10436000FF3002400A80088850F40040088016E0C0
:1043700020693F2808D220694008227CD20700D556
:10438000401C800208800AE020694009227C12F06B
:104390001F0F00D1401E800250F40040088030689A
:1043A00001884BF68F70014091F4805191F40051D7
:1043B00041F4004151F080013068018058E73068D5
:1043C000EDB230F82570380440F1A5803068EDB2C8
:1043D00030F8251040F68F70014051F080013068B0
:1043E000EDB220F82510EDB26801304410F5947854
:1043F00098F80C0000281BD13068B0F8500098F8ED
:10440000001010EBC100316811EB400101F20C41CA
:104410000C88A405A40DA4B2002C58D023009BB294
:10442000B8F80620D8F814103068FFF734FC4EE0D6
:10443000306898F8001030F8210040041BD530682F
:10444000B0F8500098F8001010EBC100316811EB83
:10445000400101F204410C88A405A40DA4B2002C73
:1044600024D023009BB2B8F80820D8F81410306884
:10447000FFF711FC1AE03068B0F8500098F800100F
:1044800010EBC100316811EB400101F20C410C88C6
:10449000A405A40DA4B2002C08D023009BB2B8F848
:1044A0000A20D8F814103068FFF7F5FB306898F848
:1044B000001030F8211048F68F70014041F400419F
:1044C00051F0C001306898F8002020F82210D8F888
:1044D0001C00A4B22018C8F81C00D8F81400A4B21C
:1044E0002044C8F81400D8F81800002804D0A4B25A
:1044F000D8F81000844205D298F80010300000F07F
:1045000067F808E0D8F81830D8F8142098F80010A8
:104510003000FFF7BFFD38067FF5AAAEEDB26801A7
:10452000304410F128013068EDB230F8252048F60B
:104530000F70024052F400423068EDB220F825209E
:104540003068B0F850000A7810EBC200326812EB05
:10455000400202F20442108880B28005800DC861DA
:104560004869CA69104448618869002804D10978FB
:10457000300000F039F87BE68B694A690978300031
:10458000FFF7AEFD74E60020BDE8F08180B500685D
:104590009C49884213D19C48006850F400009A4915
:1045A00008609948006810F400000090009800220C
:1045B0000021142000F09CF9142000F0AAF901BD9C
:1045C00080B510F50C71D0F8680200F0F3F901BD68
:1045D00080B5C9B24A010244D2F83C21C9B2D0F830
:1045E000680200F019FA01BD80B5C9B24A0102445F
:1045F000D26BC9B2D0F8680200F060FA01BD80B594
:10460000D0F8680200F021FB01BD38B50400012597
:10461000A068022801D000F025FC2900C9B2D4F816
:10462000680200F0FCFAD4F8680200F0C8FA31BD64
:1046300010B50400D4F8680200F0F4FAA06900286C
:1046400005D07248006850F006007049086010BD3F
:1046500080B5D0F8680200F0EEFA01BD10B5040094
:104660006B48C0F868426A48C4F8C00265486849A7
:10467000086008206649486002206549886000207B
:104680006349886100206249C8610020604908626E
:104690005F48FFF71BFB002801D000F0E3FB182365
:1046A00000220021D4F8C00200F0DDFB58230022D4
:1046B0008021D4F8C00200F0D6FBC0230022812163
:1046C000D4F8C00200F0CFFB4FF488730022012120
:1046D000D4F8C00200F0C7FB4FF48073002282219F
:1046E000D4F8C00200F0BFFB002010BD80B500214F
:1046F0000021D0F8C002FFF788FBC0B200F08EF8AE
:10470000C0B202BD10B51C00002300231300DBB2B1
:10471000220092B2C9B2D0F8C002FFF753FCC0B277
:1047200000F07CF8C0B210BD80B500220022C9B2F2
:10473000D0F8C002FFF782FCC0B200F06FF8C0B240
:1047400002BD80B500220022C9B2D0F8C002FFF736
:10475000E4FCC0B200F062F8C0B202BD80B5002235
:104760000022C9B2D0F8C002FFF714FDC0B200F0B9
:1047700055F8C0B202BDD0F8C002C9B20A0607D5CA
:10478000C9B211F07F014901084490F82A0006E0FF
:10479000C9B211F07F014901084490F82A0170471D
:1047A00080B500220022C9B2D0F8C002FFF7F4FBA6
:1047B000C0B200F033F8C0B202BD10B5002400242E
:1047C0009BB2C9B2D0F8C002FFF78AFCC0B200F0B9
:1047D00025F8C0B210BD10B5002400249BB2C9B2A8
:1047E000D0F8C002FFF756FCC0B200F017F8C0B214
:1047F00010BD80B5C9B2D0F8C002FFF769FC02BD98
:1048000004487047005C00401C10024010ED00E0BE
:10481000900D0020FC0F0020704770470021C0B2AF
:10482000002805D0022807D004D3032806D007E0CB
:10483000002006E0022004E0012002E0022000E067
:104840000220C0B27047000010F0070033490A6828
:104850004FF6FF010A40324951EA00210A432F482E
:10486000026070472D480068C0F30220704740B2D4
:10487000002808D4012210F01F018A40294940B2C3
:10488000400941F82020704740B2002804D40901B3
:10489000254A40B2115407E00901244A40B210F001
:1048A0000F00104400F8041C704710B410F007000B
:1048B000D0F10703052B01D3042301E0D0F1070356
:1048C000041D072C01D2002000E0C01E012414FAB0
:1048D00003F35B1E19408140012313FA00F0401ED0
:1048E0001040084310BC704780B5FFF7ADFF01BD15
:1048F00070B504000D0016000020FFF7B3FF320072
:104900002900FFF7D2FF0100200040B2FFF7BCFFF3
:1049100070BD80B540B2FFF7AAFF01BD0CED00E00D
:104920000000FA0500E100E000E400E018ED00E01E
:1049300080B5002801D1022011E0D0F8B432002B5C
:1049400002D00023C0F8B432002901D0C0F8B01260
:10495000012180F89C120270FFF780FE002002BD4A
:104960000022002903D0C0F8B412002000E0022089
:10497000C0B2704780B5FFF7B9FE002002BD00202D
:10498000704710B50224D0F8B422002A07D0C9B26B
:10499000D0F8B42212689047002800D100242000EB
:1049A000C0B210BD80B5C9B2D0F8B42252689047E9
:1049B000002002BD10B5040014F52A7000F000FEBE
:1049C0000120C4F89402B4F8AE02C4F8980294F836
:1049D000A80210F01F00002803D002280DD006D333
:1049E00011E014F52A71200000F05CFA12E014F5D1
:1049F0002A71200000F093FA0CE014F52A712000CF
:104A000000F0C2FA06E094F8A81211F0800120002C
:104A1000FFF797FE002010BD10B504001000C9B2CA
:104A2000002939D114F5AA72D4F89412032927D198
:104A30001169D368994211D2D36811695B1AD360A6
:104A4000D1681369994201D2D26800E0126992B22A
:104A50000100200000F02BFE002010BDD4F8B402AD
:104A60000069002808D094F89C02032804D1200093
:104A7000D4F8B41209698847200000F021FEEBE762
:104A8000D4F894020528E7D10020C4F8940200214C
:104A90002000FFF756FEDFE7D4F8B4028069002853
:104AA0000AD094F89C02032806D1C9B22000D4F899
:104AB000B42292699047CFE70220CEE710B50400F8
:104AC0001000C9B2002968D114F11402D4F894126C
:104AD00002294AD11169D368994210D2D368116969
:104AE0005B1AD360D26892B20100200000F0C4FDCE
:104AF0000023002200212000FFF76DFE41E09068B6
:104B00001169B0FBF1F301FB1300002817D1906885
:104B10001169884213D39068D4F8981288420ED253
:104B200000220021200000F0A7FD0020C4F8980218
:104B30000023002200212000FFF74DFE21E0D4F8E1
:104B4000B402C068002808D094F89C02032804D15D
:104B50002000D4F8B412C968884780212000FFF7EC
:104B6000F0FD200000F0B7FD0BE0D4F8940204281B
:104B700003D0D4F89402002803D180212000FFF74D
:104B8000E0FD94F8A002012805D12000FFF7F7FE10
:104B9000002084F8A002002010BDD4F8B4024069BF
:104BA00000280AD094F89C02032806D1C9B220003C
:104BB000D4F8B42252699047EDE70220ECE710B533
:104BC00004004023002200212000FFF79BFD01206C
:104BD000C4F858014020C4F8640140230022802119
:104BE0002000FFF78FFD0120A061402060620120BE
:104BF00084F89C020020C4F8940200206060002029
:104C0000C4F8A402D4F8B802002806D06168C9B27A
:104C10002000D4F8B42252689047002010BD0174DF
:104C20000020704790F89C1280F89D12042180F8B3
:104C30009C120020704790F89C12042903D190F830
:104C40009D1280F89C120020704780B590F89C124D
:104C5000032908D1D0F8B412C969002903D0D0F8CB
:104C6000B412C9698847002002BD000080B500F079
:104C70003DFD00F013F800F086F800F055F800F064
:104C800049FD00F071FD4FF4FA7000F0A5FD00F051
:104C90007EFD4FF4FA7000F09FFDF2E700B593B08F
:104CA00009A8282100F0ACFD6846142100F0A8FDF9
:104CB00005A8102100F0A4FD012009905FF48030C8
:104CC0000A9000200B9001200D90022010905FF4BC
:104CD000803011905FF4E010129009A800F094FD6C
:104CE000002801D000F0BEF80F20009002200190B3
:104CF000002002904FF48060039000200490022175
:104D0000684600F0BFFF002801D000F0ABF810208B
:104D100005900020089005A801F000F9002801D0B6
:104D200000F0A0F813B000BD80B5484848490860BD
:104D30004FF4827046494860002045498860002051
:104D40004349C86000204249086100204049486149
:104D50004FF400703E49886108203D49C861002039
:104D60003B49086200203A4948620020384988627D
:104D70000A203749C862364801F05EF9002801D0A0
:104D800000F070F801BD00B585B001A8102100F059
:104D900037FD3048006850F010002E4908602D485B
:104DA000006810F01000009000982A48006850F049
:104DB0002000284908602748006810F02000009073
:104DC00000982448006850F00400224908602148F7
:104DD000006810F00400009000981E48006850F031
:104DE00008001C4908601B48006810F0080000908B
:104DF000009800220121184801F04FFA00220121F9
:104E0000164801F04AFA012001900120029000208A
:104E100003900220049001A90F4801F053F90120EA
:104E2000019001200290002003900220049001A92B
:104E30000A4801F047F905B000BD80B5006808498F
:104E4000884201D101F054FA01BD00000030014058
:104E5000741600201810024000080140000C0140A8
:104E6000002C0140704710B489B20C0606D589B2F7
:104E700011F0070149010844283004E089B24901D2
:104E8000084410F5947092B2002A03D100210173F6
:104E9000C38004E00121017303811B0C43810020C6
:104EA00010BC704710B500240A7812F06002002A86
:104EB00008D0202A01D0402A2CD1D0F8B422926800
:104EC000904729E04A78002A18D0012A1CD0032AEA
:104ED00017D0052A09D0062A04D0082A0BD0092A9F
:104EE00006D014E000F06FF913E000F06CFA10E067
:104EF00000F098FA0DE000F009FB0AE000F025FB55
:104F000007E000F041FB04E000F048FB01E000F0A6
:104F10006BFB01E000F068FB2000C0B210BD38B5AB
:104F200004000D000020287810F06000002803D055
:104F3000202801D0402821D194F89C02401E02284C
:104F400017D8287902280FDA29002000D4F8B422D3
:104F500092689047E98800290AD1C0B2002807D199
:104F6000200000F0ADFB03E02900200000F03CFB36
:104F700003E02900200000F037FB03E029002000B7
:104F800000F032FB002032BD70B50500080000249F
:104F90008188027812F06002002A0BD0202A02D009
:104FA000402A40F0098101002800D5F8B422926817
:104FB000904705E1027812F06002202A07D1010033
:104FC0002800D5F8B42292689047C0B2FAE042783F
:104FD000002A66D0012A36D0032A40F0E88095F8EE
:104FE0009C22022A02D0032A14D027E0C9B2002949
:104FF0000BD0C9B2802908D0C9B22800FFF7A1FBA5
:1050000080212800FFF79DFB03E00100280000F04D
:10501000EBFA17E04288002A0CD1C9B2002909D066
:10502000C9B2802906D0C088002803D1C9B228009F
:10503000FFF787FB280000F043FB03E00100280096
:1050400000F0D2FAB7E095F89C22022A02D0032A97
:1050500014D021E0C9B200290BD0C9B2802908D0F0
:10506000C9B22800FFF76DFB80212800FFF769FB1C
:1050700003E00100280000F0B7FA11E040880028A2
:1050800009D111F07F0F03D0C9B22800FFF766FBEA
:10509000280000F015FB03E00100280000F0A4FA4E
:1050A00089E095F89C22022A02D0032A28D079E0D0
:1050B000C9B2002907D0C9B2802904D00100280054
:1050C00000F092FA72E0C9B2080609D5C9B211F02F
:1050D0007F011420414305EB010010F1140108E0A9
:1050E000C9B211F07F011420414305EB010010F516
:1050F000AA71002008600222280000F0ADFA55E0F5
:10510000C9B20A060ED5C9B211F00F0314225343D7
:1051100005EB03029269002A14D10100280000F077
:1051200063FA43E0C9B211F00F031422534305EBB5
:105130000302D2F85821002A04D10100280000F00F
:1051400053FA33E0C9B2080609D5C9B211F07F029B
:105150001420424305EB020010F1140608E0C9B226
:1051600011F07F021420424305EB020010F5AA76ED
:10517000C9B2002902D0C9B2802902D10020306012
:105180000AE0C9B22800FFF7F6FA002802D0012091
:10519000306001E00020306002223100280000F081
:1051A0005BFA03E00100280000F01EFA03E00100B2
:1051B000280000F019FA03E00100280000F014FABA
:1051C0002000C0B270BDF8B505000E000020ADF89B
:1051D000000000270024708880B2000AC0B20128B5
:1051E0000AD0022810D0032823D0062800F0A5807A
:1051F000072800F0B280C2E06946287CD5F8B022CA
:10520000126890470700BFE0287C002808D1684654
:10521000D5F8B412896A884707000220787007E041
:105220006846D5F8B412C96A88470700022078702A
:10523000AAE0B078002808D002282CD018D304287F
:105240004FD03BD305285FD071E0D5F8B00240685D
:10525000002807D06946287CD5F8B02252689047CC
:10526000070004E03100280000F0BEF9641C63E090
:10527000D5F8B0028068002807D06946287CD5F8A8
:10528000B02292689047070004E03100280000F047
:10529000ABF9641C50E0D5F8B002C068002807D014
:1052A0006946287CD5F8B022D2689047070004E010
:1052B0003100280000F098F9641C3DE0D5F8B002F8
:1052C0000069002807D06946287CD5F8B022126909
:1052D0009047070004E03100280000F085F9641CC5
:1052E0002AE0D5F8B0024069002807D06946287C3A
:1052F000D5F8B02252699047070004E03100280039
:1053000000F072F9641C17E0D5F8B002806900283B
:1053100007D06946287CD5F8B022926990470700EB
:1053200004E03100280000F05FF9641C04E0310063
:10533000280000F059F9641C26E0287C002806D1DA
:105340006846D5F8B412496B8847070004E031007D
:10535000280000F049F9641C16E0287C002808D1D8
:105360006846D5F8B412096B8847070007207870A3
:1053700004E03100280000F037F9641C04E031003B
:10538000280000F031F9641CE4B2002C1AD1BDF8F9
:105390000000002810D0F08800280DD0BDF80000D3
:1053A000F188884202D3F088ADF80000BDF80020F3
:1053B0003900280000F050F9F088002802D12800B8
:1053C00000F07EF9F1BD38B505008888002825D1A8
:1053D000C888002822D1488880281FD28C7814F0F1
:1053E0007F0495F89C02032803D1280000F0FCF804
:1053F00017E085F89E422100C9B22800FFF7D0F9D6
:10540000280000F05DF9E4B2002C03D0022085F8FA
:105410009C0206E0012085F89C0202E0280000F0D2
:10542000E3F831BD38B504000D00688836490870CE
:1054300035480078022804DB2900200000F0D4F869
:1054400061E094F89C02022802D003281ED051E0AB
:105450002D480078002815D02B4800786060032084
:1054600084F89C02284801782000FFF78AFA022875
:1054700004D12900200000F0B7F844E0200000F03B
:105480001FF902E0200000F01BF93CE01E48007804
:1054900000280ED1022084F89C021B48007860602E
:1054A000194801782000FFF77DFA200000F008F984
:1054B0001FE0154800786168884217D06168C9B25A
:1054C0002000FFF76FFA1048007860600E480178FE
:1054D0002000FFF756FA022804D12900200000F02E
:1054E00083F810E0200000F0EBF802E0200000F06C
:1054F000E7F808E02900200000F076F8024801787B
:105500002000FFF74FFA31BDD317002080B5CA88BD
:10551000012A02D000F068F816E090F89C22521E92
:10552000012A02D9921E08D00CE0002181600122DC
:1055300010F1080100F090F806E00122011D00F0D2
:105540008BF801E000F050F801BD80B590F89C2286
:10555000521E022A15D8CA88022A02D000F044F846
:1055600011E00121C160D0F8A412002903D0C16864
:1055700051F00201C160022210F10C0100F06CF840
:1055800001E000F031F801BD80B54988012904D15E
:105590000121C0F8A41200F093F801BD80B590F885
:1055A0009C22521E022A08D84988012904D10021D0
:1055B000C0F8A41200F084F801E000F015F801BD75
:1055C0000A7802704A7842708A78CB7812EB03220C
:1055D00042800A794B7912EB032282808A79C97959
:1055E00012EB0122C280704710B504008021200018
:1055F000FFF7A7F800212000FFF7A3F810BDF8B5CA
:1056000004000D0017000026002C1AD0200000F026
:1056100019F84000801C38803878F6B2A855761CFE
:105620000320F6B2A855761C08E02078F6B2A855FB
:10563000641C761C0020F6B2A855761C2078002841
:10564000F3D1F1BD0200002001E0401C521C117892
:105650000029FAD1C0B2704780B513000222C0F809
:1056600094229BB2C3619BB203629BB20A000021E9
:10567000FFF7A3F8002002BD80B513009BB20A001B
:105680000021FFF79AF8002002BD80B51300032225
:10569000C0F894229BB2C0F85C319BB2C0F8603174
:1056A0009BB20A000021FFF796F8002002BD80B5EA
:1056B00013009BB20A000021FFF78DF8002002BD05
:1056C00080B50421C0F89412002300220021FFF7C6
:1056D00074F8002002BD80B50521C0F894120023A3
:1056E00000220021FFF777F8002002BD80B50848AE
:1056F000006850F01000064908600320FFF7F4F836
:10570000002000F001FE00F045FE002002BD000078
:105710000020024080B500220F491048FFF708F929
:10572000002801D0FFF79EFB0D490C48FFF718F940
:10573000002801D0FFF796FB0A49084801F016F847
:10574000002801D0FFF78EFB0448FFF713F900286B
:1057500001D0FFF787FB01BD28010020CC0A002003
:10576000140000201801002010B501200121164866
:1057700000F08AFD002801D1002400E00124E4B2F9
:105780002100124801F026F82000C0B210BD10B56B
:1057900000200F4800F050FC0400012201210A48BB
:1057A00000F07BFDE4B2002C04D1E4B221000948F2
:1057B00001F010F8FFF7D8FF012801D0012001E027
:1057C0002000C0B210BD0000000C0140D4730008DE
:1057D00074160020E873000838B5040001F00EF8D4
:1057E000050014F1010F02D004480078041901F0FB
:1057F00005F8401BA042FAD331BD00BFF8020020DB
:10580000002201F001B8000070B582B00400002C45
:1058100001D1012035E22078C00740F18480DFF813
:10582000B806006810F00C0004280BD0DFF8A806BA
:10583000006810F00C0008280ED1DFF89C06006804
:10584000C00309D5DFF88C06006880036BD560685B
:10585000002868D1012014E26068B0F5803F08D1CB
:10586000DFF87006006850F48030DFF868160860D2
:1058700038E06068002810D1DFF85806006830F47E
:105880008030DFF850160860DFF84806006830F412
:105890008020DFF84016086024E06068B0F5A02F93
:1058A00010D1DFF83006006850F48020DFF82416AD
:1058B0000860DFF82006006850F48030DFF8141626
:1058C00008600FE0DFF80C06006830F48030DFF885
:1058D00004160860DFF8FC05006830F48020DFF86B
:1058E000F4150860606800280ED000F087FF0500FE
:1058F000DFF8E0050068800315D400F07FFF401B4F
:105900006528F5D30320BCE100F078FF0500DFF83F
:10591000C4050068800306D500F070FF401B6528B1
:10592000F5D30320ADE12078800726D5DFF8A80560
:10593000006810F00C0F0BD0DFF89C05006810F029
:105940000C00082833D1DFF890050068C0032ED47E
:10595000DFF880050068800704D52069012801D0A0
:1059600001208EE1DFF86C05006830F0F800616915
:1059700050EAC100DFF85C150860207800074ED5BA
:10598000A069002800F081800120DFF86015086020
:1059900000F034FF0500DFF85005006880073BD4B5
:1059A00000F02CFF401B0328F5D3032069E1206998
:1059B00000281ED00120DFF83815086000F01EFF17
:1059C0000500DFF810050068800706D400F016FF18
:1059D000401B0328F5D3032053E1DFF8F8040068E7
:1059E00030F0F800616950EAC100DFF8E81408609F
:1059F000C3E70020DFF8F814086000F0FFFE0500A0
:105A0000DFF8D00400688007B7D500F0F7FE401B30
:105A10000328F5D3032034E1012000F047FA207871
:105A2000400740F1B9800025DFF8C8040068C000D5
:105A30000FD4DFF8C004006850F08050DFF8B414D1
:105A40000860DFF8B004006810F080500090009803
:105A50000125DFF8A4040068C00529D4DFF8980404
:105A6000006850F48070DFF89014086000F0C6FE03
:105A70000600DFF884040068C00519D400F0BEFEFB
:105A8000801B6528F5D30320FBE00020DFF85C14C1
:105A9000086000F0B3FE0500DFF84C0400688007E2
:105AA000BDD500F0ABFE401B0328F5D30320E8E092
:105AB000E068012808D1DFF84404006850F00100D4
:105AC000DFF83814086037E0E068002810D1DFF80C
:105AD0002C04006840084000DFF820140860DFF85C
